05:56:02.686663 IP 10.0.2.15.44125 > 172.20.10.1.53: 46398+ A? google.com. (28)
	0x0000:  5254 0012 3502 0800 27ad c2d3 0800 4500  RT..5...'.....E.
	0x0010:  0038 ba68 4000 4011 be28 0a00 020f ac14  .8.h@.@..(......
	0x0020:  0a01 ac5d 0035 0024 c259 b53e 0100 0001  ...].5.$.Y.>....
	0x0030:  0000 0000 0000 0667 6f6f 676c 6503 636f  .......google.co
	0x0040:  6d00 0001 0001                           m.....
05:56:02.686780 IP 10.0.2.15.44125 > 172.20.10.1.53: 32658+ AAAA? google.com. (28)
	0x0000:  5254 0012 3502 0800 27ad c2d3 0800 4500  RT..5...'.....E.
	0x0010:  0038 ba69 4000 4011 be27 0a00 020f ac14  .8.i@.@..'......
	0x0020:  0a01 ac5d 0035 0024 c259 7f92 0100 0001  ...].5.$.Y......
	0x0030:  0000 0000 0000 0667 6f6f 676c 6503 636f  .......google.co
	0x0040:  6d00 001c 0001                           m.....
05:56:02.690321 IP 172.20.10.1.53 > 10.0.2.15.44125: 46398 1/0/0 A 216.58.200.238 (44)
	0x0000:  0800 27ad c2d3 5254 0012 3502 0800 4500  ..'...RT..5...E.
	0x0010:  0048 3821 0000 4011 8060 ac14 0a01 0a00  .H8!..@..`......
	0x0020:  020f 0035 ac5d 0034 e5e1 b53e 8180 0001  ...5.].4...>....
	0x0030:  0001 0000 0000 0667 6f6f 676c 6503 636f  .......google.co
	0x0040:  6d00 0001 0001 c00c 0001 0001 0000 0038  m..............8
	0x0050:  0004 d83a c8ee                           ...:..
05:56:02.731162 IP 172.20.10.1.53 > 10.0.2.15.44125: 32658 1/0/0 AAAA 2404:6800:4012:1::200e (56)
	0x0000:  0800 27ad c2d3 5254 0012 3502 0800 4500  ..'...RT..5...E.
	0x0010:  0054 3822 0000 4011 8053 ac14 0a01 0a00  .T8"..@..S......
	0x0020:  020f 0035 ac5d 0040 cf66 7f92 8180 0001  ...5.].@.f......
	0x0030:  0001 0000 0000 0667 6f6f 676c 6503 636f  .......google.co
	0x0040:  6d00 001c 0001 c00c 001c 0001 0000 0109  m...............
	0x0050:  0010 2404 6800 4012 0001 0000 0000 0000  ..$.h.@.........
	0x0060:  200e                                     ..
05:56:02.732285 IP 10.0.2.15 > 216.58.200.238: ICMP echo request, id 2216, seq 1, length 64
	0x0000:  5254 0012 3502 0800 27ad c2d3 0800 4500  RT..5...'.....E.
	0x0010:  0054 42f9 4000 4001 4a78 0a00 020f d83a  .TB.@.@.Jx.....:
	0x0020:  c8ee 0800 1423 08a8 0001 b2a7 d25c 602c  .....#.......\`,
	0x0030:  0b00 0809 0a0b 0c0d 0e0f 1011 1213 1415  ................
	0x0040:  1617 1819 1a1b 1c1d 1e1f 2021 2223 2425  ...........!"#$%
	0x0050:  2627 2829 2a2b 2c2d 2e2f 3031 3233 3435  &'()*+,-./012345
	0x0060:  3637                                     67
05:56:02.756015 IP 216.58.200.238 > 10.0.2.15: ICMP echo reply, id 2216, seq 1, length 64
	0x0000:  0800 27ad c2d3 5254 0012 3502 0800 4500  ..'...RT..5...E.
	0x0010:  0054 3823 0000 3201 a34e d83a c8ee 0a00  .T8#..2..N.:....
	0x0020:  020f 0000 1c23 08a8 0001 b2a7 d25c 602c  .....#.......\`,
	0x0030:  0b00 0809 0a0b 0c0d 0e0f 1011 1213 1415  ................
	0x0040:  1617 1819 1a1b 1c1d 1e1f 2021 2223 2425  ...........!"#$%
	0x0050:  2627 2829 2a2b 2c2d 2e2f 3031 3233 3435  &'()*+,-./012345
	0x0060:  3637                                     67
05:56:02.756296 IP 10.0.2.15.48420 > 172.20.10.1.53: 30670+ PTR? 238.200.58.216.in-addr.arpa. (45)
	0x0000:  5254 0012 3502 0800 27ad c2d3 0800 4500  RT..5...'.....E.
	0x0010:  0049 ba6d 4000 4011 be12 0a00 020f ac14  .I.m@.@.........
	0x0020:  0a01 bd24 0035 0035 c26a 77ce 0100 0001  ...$.5.5.jw.....
	0x0030:  0000 0000 0000 0332 3338 0332 3030 0235  .......238.200.5
	0x0040:  3803 3231 3607 696e 2d61 6464 7204 6172  8.216.in-addr.ar
	0x0050:  7061 0000 0c00 01                        pa.....
05:56:02.758399 IP 172.20.10.1.53 > 10.0.2.15.48420: 30670 2/0/0 PTR tsa03s01-in-f238.1e100.net., PTR tsa03s01-in-f14.1e100.net. (115)
	0x0000:  0800 27ad c2d3 5254 0012 3502 0800 4500  ..'...RT..5...E.
	0x0010:  008f 3824 0000 4011 8016 ac14 0a01 0a00  ..8$..@.........
	0x0020:  020f 0035 bd24 007b 1279 77ce 8180 0001  ...5.$.{.yw.....
	0x0030:  0002 0000 0000 0332 3338 0332 3030 0235  .......238.200.5
	0x0040:  3803 3231 3607 696e 2d61 6464 7204 6172  8.216.in-addr.ar
	0x0050:  7061 0000 0c00 01c0 0c00 0c00 0100 001b  pa..............
	0x0060:  c700 1c10 7473 6130 3373 3031 2d69 6e2d  ....tsa03s01-in-
	0x0070:  6632 3338 0531 6531 3030 036e 6574 00c0  f238.1e100.net..
	0x0080:  0c00 0c00 0100 001b c700 120f 7473 6130  ............tsa0
	0x0090:  3373 3031 2d69 6e2d 6631 34c0 4a         3s01-in-f14.J
05:56:03.733710 IP 10.0.2.15 > 216.58.200.238: ICMP echo request, id 2216, seq 2, length 64
	0x0000:  5254 0012 3502 0800 27ad c2d3 0800 4500  RT..5...'.....E.
	0x0010:  0054 437f 4000 4001 49f2 0a00 020f d83a  .TC.@.@.I......:
	0x0020:  c8ee 0800 731c 08a8 0002 b3a7 d25c 0032  ....s........\.2
	0x0030:  0b00 0809 0a0b 0c0d 0e0f 1011 1213 1415  ................
	0x0040:  1617 1819 1a1b 1c1d 1e1f 2021 2223 2425  ...........!"#$%
	0x0050:  2627 2829 2a2b 2c2d 2e2f 3031 3233 3435  &'()*+,-./012345
	0x0060:  3637                                     67
05:56:03.766691 IP 216.58.200.238 > 10.0.2.15: ICMP echo reply, id 2216, seq 2, length 64
	0x0000:  0800 27ad c2d3 5254 0012 3502 0800 4500  ..'...RT..5...E.
	0x0010:  0054 3825 0000 3201 a34c d83a c8ee 0a00  .T8%..2..L.:....
	0x0020:  020f 0000 7b1c 08a8 0002 b3a7 d25c 0032  ....{........\.2
	0x0030:  0b00 0809 0a0b 0c0d 0e0f 1011 1213 1415  ................
	0x0040:  1617 1819 1a1b 1c1d 1e1f 2021 2223 2425  ...........!"#$%
	0x0050:  2627 2829 2a2b 2c2d 2e2f 3031 3233 3435  &'()*+,-./012345
	0x0060:  3637                                     67
05:56:04.736795 IP 10.0.2.15 > 216.58.200.238: ICMP echo request, id 2216, seq 3, length 64
	0x0000:  5254 0012 3502 0800 27ad c2d3 0800 4500  RT..5...'.....E.
	0x0010:  0054 4437 4000 4001 493a 0a00 020f d83a  .TD7@.@.I:.....:
	0x0020:  c8ee 0800 710f 08a8 0003 b4a7 d25c 013e  ....q........\.>
	0x0030:  0b00 0809 0a0b 0c0d 0e0f 1011 1213 1415  ................
	0x0040:  1617 1819 1a1b 1c1d 1e1f 2021 2223 2425  ...........!"#$%
	0x0050:  2627 2829 2a2b 2c2d 2e2f 3031 3233 3435  &'()*+,-./012345
	0x0060:  3637                                     67
05:56:04.777296 IP 216.58.200.238 > 10.0.2.15: ICMP echo reply, id 2216, seq 3, length 64
	0x0000:  0800 27ad c2d3 5254 0012 3502 0800 4500  ..'...RT..5...E.
	0x0010:  0054 3826 0000 3201 a34b d83a c8ee 0a00  .T8&..2..K.:....
	0x0020:  020f 0000 790f 08a8 0003 b4a7 d25c 013e  ....y........\.>
	0x0030:  0b00 0809 0a0b 0c0d 0e0f 1011 1213 1415  ................
	0x0040:  1617 1819 1a1b 1c1d 1e1f 2021 2223 2425  ...........!"#$%
	0x0050:  2627 2829 2a2b 2c2d 2e2f 3031 3233 3435  &'()*+,-./012345
	0x0060:  3637                                     67
05:56:05.738580 IP 10.0.2.15 > 216.58.200.238: ICMP echo request, id 2216, seq 4, length 64
	0x0000:  5254 0012 3502 0800 27ad c2d3 0800 4500  RT..5...'.....E.
	0x0010:  0054 44fc 4000 4001 4875 0a00 020f d83a  .TD.@.@.Hu.....:
	0x0020:  c8ee 0800 6f07 08a8 0004 b5a7 d25c 0245  ....o........\.E
	0x0030:  0b00 0809 0a0b 0c0d 0e0f 1011 1213 1415  ................
	0x0040:  1617 1819 1a1b 1c1d 1e1f 2021 2223 2425  ...........!"#$%
	0x0050:  2627 2829 2a2b 2c2d 2e2f 3031 3233 3435  &'()*+,-./012345
	0x0060:  3637                                     67
05:56:05.777490 IP 216.58.200.238 > 10.0.2.15: ICMP echo reply, id 2216, seq 4, length 64
	0x0000:  0800 27ad c2d3 5254 0012 3502 0800 4500  ..'...RT..5...E.
	0x0010:  0054 3827 0000 3201 a34a d83a c8ee 0a00  .T8'..2..J.:....
	0x0020:  020f 0000 7707 08a8 0004 b5a7 d25c 0245  ....w........\.E
	0x0030:  0b00 0809 0a0b 0c0d 0e0f 1011 1213 1415  ................
	0x0040:  1617 1819 1a1b 1c1d 1e1f 2021 2223 2425  ...........!"#$%
	0x0050:  2627 2829 2a2b 2c2d 2e2f 3031 3233 3435  &'()*+,-./012345
	0x0060:  3637                                     67

